:020000040800F2
:10000000080F0020450100080F0900085F080008DC
:100010000B09000875020008871D00080000000099
:100020000000000000000000000000002D1000088B
:100030005D05000800000000150B0008A511000870
:100040005F0100085F0100085F010008450E00081D
:100050005F0100085F0100085F0100085F050008FC
:10006000710500085F0100085F0100085F010008DA
:100070005F0100085F0100085F0100085F010008E0
:100080005F0100085F0100085F0100085F010008D0
:100090005F0100085F0100085F0100085F010008C0
:1000A0005F0100085F0100085F0100085F010008B0
:1000B00085120008B91300085F0100085F010008FD
:1000C0005F0100085F0100085F0100085F01000890
:1000D0005F0100085F010008C91800081D19000829
:1000E0005F0100085F0100085F0100085F01000870
:1000F0005F0100085F0100085F0100085F01000860
:100100005F0100085F0100085F0100085F0100084F
:10011000751800085F0100085F0100085F01000812
:100120005F0100085F0100085F0100085F0100082F
:10013000DFF80CD000F03CF800480047BD24000870
:10014000080F00200648804706480047FEE7FEE704
:10015000FEE7FEE7FEE7FEE7FEE7FEE7FEE7FEE777
:10016000D51100083101000830B5044600200346CF
:1001700000E05B1C934203D2E05CCD5C401BF8D0F6
:1001800030BD30B50B46014600202022012409E095
:1001900021FA02F59D4205D303FA02F5491B04FA40
:1001A00002F52844151EA2F10102F1DC30BD000069
:1001B000064C074D06E0E06840F0010394E80700B4
:1001C00098471034AC42F6D3FFF7B6FF4825000835
:1001D0006825000870B58C1810F8015B15F007034E
:1001E00001D110F8013B2A1106D110F8012B03E0D0
:1001F00010F8016B01F8016B5B1EF9D12B0705D4D8
:100200000023521E0DD401F8013BFAE710F8013B20
:10021000CB1A921C03E013F8015B01F8015B521E3C
:10022000F9D5A142D8D3002070BD10B5012000F04F
:10023000B3FC002000F0B0FC10BD000008B5014682
:100240000020009003480090009808440090009817
:10025000008808BD006C004008B500220092044AE6
:100260000092009A02440092009A116008BD0000BA
:10027000006C004000BFFEE7F8B5064600240025EC
:10028000002700203A49088031463AA001F08CFD51
:1002900000BF08E0394830F814003549098808449F
:1002A00033490880641C364800888442F2DB3048B9
:1002B0000088864205DD00F091F832A001F074FD5F
:1002C000F8BD00202A490880002414E02B4830F8AB
:1002D00014002749098808442549088008460088F1
:1002E000864207DA254830F814000988081A301ABF
:1002F00086B204E0641C224800888442E6DB00BF2A
:1003000024490C8004EB8410234901EB800050F851
:10031000260022490968451A15B12148854203D1B2
:1003200020A001F041FD15E0002D09DD4FF2244031
:10033000854203DD02274000451B0BE0012709E051
:100340006D424FF22440854203DD01274000451BEA
:1003500000E002272946384600F060F82B463A466E
:100360000E480094016812A001F01EFD00BFA7E72F
:100370007600002025640D0A0000000062000020C5
:10038000600000206E6F20446F6F724E756D0D0A15
:1003900000000000220000207C0000205C00002003
:1003A00048E80100646F6E74206D6F76650D0A0079
:1003B0005025640920442564095320256409204CF4
:1003C0002564090D0A00000010B500F03DF8024850
:1003D000008800F053FB10BD2200002010B50A4831
:1003E000007878B90948006840F0040007490860BF
:1003F00007480849086001200349087001210648A0
:1004000001F00EF810BD0000540000200804014067
:10041000512502004C0000200004004070B5044645
:100420000D460648007838B9054805600348047051
:100430000121044800F0F4FF70BD000054000020CA
:100440004C0000200004004010B51A480088B0F5A8
:10045000FA7F2DDD0020174908804FF400711648FF
:1004600000F0F9F94FF48071134800F0F4F980219D
:10047000114800F0F0F940210F4800F0ECF94FF47A
:1004800080510E4800F0E7F94FF400510B4800F09E
:10049000E2F94FF48041094800F0DDF94FF40041E2
:1004A000064800F0D8F94FF48071054800F0D3F900
:1004B00010BD00002400002000100140000C01408D
:1004C0000014014010B50446052C33D2DFE804F0D7
:1004D00003090F262C0028221849194802F015F8A4
:1004E00029E028221749164802F00FF823E00522D8
:1004F0001549134802F009F81448C07800F00F00BD
:100500001249C978090901EB810100EB410010494A
:10051000088008460088FFF7AFFE0CE005220D4971
:10052000074801F0F2FF06E002220B49044801F0FF
:10053000ECFF00E000BF00BF10BD0000320900204A
:10054000004400405F09002090090020AC09002011
:10055000A40900209A0900208C090020704710B5DA
:10056000022000F06FF810B1022000F065F810BD15
:1005700010B5042000F066F8C0B1042000F05CF86B
:100580000B48006820F00400094908600948008809
:100590000949096890FBF1F008490968084443F6E5
:1005A00009510844A0F548700549086010BD0000D5
:1005B00008040140240400403800002030000020DE
:1005C000580000201FB50121092000F0C5FA0820BD
:1005D0008DF8000000208DF8010001208DF8020048
:1005E0008DF80300684600F0FDF90420ADF80C001A
:1005F00048208DF80F0003A90D4800F0A1F8022152
:10060000012000F07DF80420019000208DF8080002
:1006100008208DF8090001208DF80A0001A800F0DB
:1006200025F80448006820F00400024908601FBD56
:10063000000C0140080401400149086070470000B7
:1006400014040140014600200022074B1B6803EA06
:100650000102054B14331B680B4013B10AB1012092
:1006600000E0002070470000000401400021234901
:100670008279002A3AD00A46126803689A430B46E8
:100680001A600A1D126803689A430B1D1A600279EA
:1006900011440A6803681A430A60184A083212684B
:1006A00003689A43154B08331A601A1D12680368D1
:1006B0009A43124B0C331A604279102A0ED11A1F3A
:1006C000126803681A430D4B08331A601A1D12682A
:1006D00003681A43094B0C331A600DE0074942794D
:1006E00011440A6803681A430A6005E0027911445C
:1006F0000A6803689A430A607047000000040140DA
:1007000030B500228B071C0F0F2303FA04F20B4BAA
:100710008C1053F824309343084C8D1044F8253046
:1007200023468C1053F824308C07240F00FA04F46D
:100730002343024C8D1044F8253030BD08000140A1
:100740002DE9F04102460025002600200023002468
:10075000002791F803C00CF00F0591F803C00CF0CE
:10076000100CBCF1000F03D091F802C04CEA050553
:1007700091F800C0BCF1000F31D0146800202BE0CC
:100780004FF0010C0CFA00F3B1F800C00CEA0306BC
:100790009E4220D183004FF00F0C0CFA03F7BC43AC
:1007A00005FA03FC4CEA040491F803C0BCF1280FDD
:1007B00006D14FF0010C0CFA00FCC2F814C00AE09C
:1007C00091F803C0BCF1480F05D14FF0010C0CFAB1
:1007D00000FCC2F810C0401C0828D1D31460B1F846
:1007E00000C0BCF1FF0F34DD546800202EE000F1A2
:1007F000080C4FF0010808FA0CF3B1F800C00CEA3D
:1008000003069E4221D183004FF00F0C0CFA03F730
:10081000BC4305FA03FC4CEA040491F803C0BCF1A4
:10082000280F05D100F1080C08FA0CF8C2F8148062
:1008300091F803C0BCF1480F07D100F1080C4FF04C
:10084000010808FA0CF8C2F81080401C0828CED322
:100850005460BDE8F081416170470161704700BF9D
:10086000FEE710B545F2555000F028F8062000F0DC
:1008700019F84FF4FA7000F01BF800F00BF800F0D4
:1008800001F810BD4CF6CC400149086070470000EB
:10089000003000404AF6AA20014908607047000075
:1008A00000300040014948607047000000300040BF
:1008B000014988607047000000300040014908602D
:1008C00070470000003000400146CA1701EB9272E9
:1008D0009210A1EB820292B9642091FBF0F200FB2E
:1008E000121050B94FF4C87091FBF0F200FB1210D7
:1008F00008B9012070470020FCE70120FAE700203A
:10090000F8E710B500F054FB10BD00BFFEE77047DC
:1009100008B500214FF0006000F0A6F84FF4A06089
:1009200000F098F81D208DF8000000208DF80100DF
:1009300002208DF8020001208DF80300684600F0C7
:1009400051F81C208DF8000001208DF801000220D4
:100950008DF8020001208DF80300684600F042F88F
:1009600027208DF8000001208DF802008DF803008B
:10097000684600F037F826208DF8000000208DF83A
:10098000020001208DF80300684600F02BF83420A7
:100990008DF8000000208DF8020001208DF8030082
:1009A000684600F01FF803208DF8000001208DF844
:1009B000010000208DF8020001208DF80300684638
:1009C00000F010F807208DF8000000208DF80100DD
:1009D0008DF8020001208DF80300684600F002F84F
:1009E00008BD000070B5002100230F22C47804B3B5
:1009F000154C246804F4E064C4F5E064210AC1F1F4
:100A00000403CA40447804FA03F184781440214373
:100A100009010E4C0678A155047804F01F05012445
:100A2000AC4005786D11AD0005F1E025C5F8004139
:100A300009E0047804F01F050124AC40044D067859
:100A4000761145F8264070BD0CED00E000E400E0B2
:100A500080E100E002490143024A11607047000052
:100A60000000FA050CED00E0024A0A400243024B86
:100A70001A60704780FFFF1F08ED00E01E490988DB
:100A800089B300211C4A118009282ED2DFE800F02A
:100A9000050A0F13171C21262C004FF40071174A6A
:100AA000116123E04FF48071144A11611EE080212E
:100AB000124A11611AE04021104A116116E04FF408
:100AC00080510F4A116011E04FF400510C4A11603F
:100AD0000CE04FF480410A4A116007E04FF40041F6
:100AE000074A116002E005E000E000BF00BF0121FD
:100AF000044A1180704700002000002000100140CF
:100B0000100C0140240000200149086270470000D9
:100B100000000E427047000029B1064AD269024324
:100B2000044BDA6104E0034AD2698243014BDA6183
:100B3000704700000010024029B1064A12690243C2
:100B4000044B1A6104E0034A12698243014B1A61A3
:100B5000704700000010024029B1064A9269024322
:100B6000044B9A6104E0034A92698243014B9A6103
:100B7000704700000010024029B1064AD2680243C3
:100B8000044BDA6004E0034AD2688243014BDA6026
:100B900070470000001002400149086070470000E3
:100BA000400442420348406A40F080700149486274
:100BB000704700000010024030B5002100220024E0
:100BC00000232D4D6D6805F00C0121B1042905D0DD
:100BD000082923D105E0294D056022E0274D056055
:100BE0001FE0254D6D6805F47012234D6D6805F406
:100BF0008034022505EB92421CB9214D5543056016
:100C00000BE01D4D6D6805F400351DB11C4D5543BD
:100C1000056002E0194D5543056002E0174D05607F
:100C200000BF00BF144D6D6805F0F0010909154DB6
:100C30006B5C0568DD4045600F4D6D6805F4E06153
:100C4000090A104D6B5C4568DD4085600A4D6D6892
:100C500005F46051C90A0B4D6B5C4568DD40C56009
:100C6000054D6D6805F44041890B074D6B5CC56807
:100C7000B5FBF3F5056130BD0010024000127A00AB
:100C800000093D00000000201000002010B50146C2
:100C90000022002300204A11012A02D1094C2368B6
:100CA00006E0022A02D1074C236A01E0054C636A80
:100CB00001F01F02012494401C400CB1012000E00F
:100CC000002010BD0010024000210B4A11700A4A9A
:100CD000203A82F82010012802D0042808D103E02D
:100CE0000121054A117004E00521034A117000E05A
:100CF00000BF00BF7047000020100240014908609B
:100D0000704700003C0442420249096A0143014A1B
:100D10001162704700100240024909888143014A6C
:100D200011807047042800401CB50420FFF786FAA4
:100D300045F65A21884242D001214FF0C050FFF7BA
:100D4000EBFE0120FFF7E0FEFFF76FFA0120FFF74F
:100D5000BBFF002401E0601C84B241F28830844271
:100D6000F9DB00BF4120FFF791FF0028FAD04FF4D4
:100D70008070FFF7C9FF0120FFF7C0FF00F006F900
:100D800000F0FAF80121084600F068F800F0F4F8E5
:100D900047F6FF7000F0E0F800F0EEF845F65A2153
:100DA0000420FFF759FA32200C210B460722CDE927
:100DB0000010114640F2E17000F060F81BE00121E4
:100DC0004FF0C050FFF7A8FE002401E0601C84B281
:100DD00041F288308442F9DB7B20FFF757FF10B9DE
:100DE0007A20FFF753FFFFF7DDFE0121084600F0F0
:100DF00035F800F0C1F81CBD0348008840F0100031
:100E0000014908807047000004280040034800881A
:100E10004FF6EF71084001490880704704280040F0
:100E200001460020064A12880A40D0B2044A121F26
:100E300012880A4012B108B1012000E0002070477A
:100E40000428004010B50120FFF7EAFF20B101207F
:100E5000FFF762FF00F090F810BD000029B1064ACC
:100E600012880243044B1A8004E0034A128882432A
:100E7000014B1A8070470000002800402DE9F05F08
:100E800006460F4690469946DDE90AAB0024B6F5C2
:100E9000FA6F03DB40F63300864202DD0120BDE835
:100EA000F09F40F2B2750AE02846FFF70DFD10B141
:100EB0001E48044401E01E480444681C85B2B54243
:100EC000F2DB781EC7B2002510E01A48405D40F200
:100ED000A321484304EBC0143046FFF7F5FC18B1DA
:100EE000012D01D114480444681C85B2BD42ECDBDD
:100EF000A8F1010040F2A321484304EBC014C9EB60
:100F00004910C0EB092004EB0014CAEB0A1004EBF3
:100F100080045C440120FFF7F7FD00F02DF8204627
:100F200000F00CF800F028F80020B8E70085E20196
:100F30008033E1013C2500088051010000B50246E4
:100F4000FFF75AFF100C03490880091D0A80FFF7BC
:100F50005DFF00BD1828004000B50246FFF74CFFBA
:100F6000C2F3034003490880091D0A80FFF74EFFC2
:100F700000BD00000828004000BF0348008800F0C2
:100F800020000028F9D07047042800400748008856
:100F90004FF6F77108400549088000BF03480088F4
:100FA00000F008000028F9D0704700000428004035
:100FB00010B51A4890F8650078B30020174981F8F9
:100FC0006500174908701AE01548007800EB8000AA
:100FD000144B03EB400082791148007800EB80004D
:100FE00003EB40010D48FFF7BFF818B90C48007833
:100FF000FFF768FA0A480078401C09490870084859
:1010000000780A28E0DB0020044981F8640001220E
:1010100040F22551044800F01CFE10BDAC09002030
:10102000A60900209C08002000440040704710B52D
:1010300000F002F810BD00000CB5002001900090F7
:101040003348006840F480303149086000BF3048C0
:10105000006800F4003000900198401C0190009856
:1010600018B90198B0F5A06FF1D12948006800F4D3
:10107000003010B10120009001E0002000900098A5
:10108000012843D12348006840F01000214908603E
:101090000846006820F0030008600846006840F039
:1010A000020008601A4840681949486008464068CC
:1010B00048600846406840F48060486008464068E0
:1010C00020F47C1048600846406840F4E81048600E
:1010D0000846006840F08070086000BF0C48006857
:1010E00000F000700028F9D00948406820F00300A3
:1010F000074948600846406840F00200486000BF69
:101100000348406800F00C000828F9D10CBD00002D
:101110000010024000200240042808D14FF0E021D6
:10112000096941F004014FF0E022116107E04FF03E
:10113000E021096921F004014FF0E02211617047BC
:10114000012808D14FF0E021096941F001014FF079
:10115000E02211610EE0811C41B94FF0E0210969E4
:1011600021F001014FF0E022116103E000214FF076
:10117000E0229161704710B5014600220023002053
:10118000CB10022B03D14FF0E024226902E04FF094
:10119000E024E26901248C4014400CB1012000E0FD
:1011A000002010BD704740B14FF0E021096941F0C7
:1011B00002014FF0E022116107E04FF0E0210969E0
:1011C00021F002014FF0E022116170474FF0E02161
:1011D0004861704710B51348006840F0010011499C
:1011E000086008464068104908400E4948600846B3
:1011F00000680E4908400B4908600846006820F462
:10120000802008600846406820F4FE0048604FF4E3
:101210001F008860FFF70BFF4FF000600449086073
:1012200010BD0000001002400000FFF8FFFFF6FEB6
:1012300008ED00E00EB501210846FFF76DFC4FF008
:10124000804000F0F9F840F2E730ADF804004720A4
:10125000ADF800000020ADF80600ADF802006946C8
:101260004FF0804000F044FA0121880700F0D2F8E6
:1012700001221146900700F0E4F90121880700F0EF
:10128000CFF80EBD10B50121880700F0C9F900287C
:101290005DD00121880700F0C0F82D4890F8660065
:1012A000B8B12B4890F8661090F86600401C284AA8
:1012B00082F8660005290CDD0020114681F86600E1
:1012C000012081F86500002240F22551214800F0FC
:1012D000C0FC214890F86600B8B11F4890F866102D
:1012E00090F86600401C1C4A82F8660005290CDD57
:1012F0000020114681F86600012081F86500002277
:1013000040F22551154800F0A4FC154890F86600FD
:1013100080B1134890F8661090F86600401C104A9F
:1013200082F86600052905DD0020114681F8660077
:1013300081F864000B480078401C0A4908700A488C
:10134000008820B108480088401C0749088010BD6B
:10135000AC09002000440040140A0020004800406E
:101360007C0A0020140000202400002010B5012178
:101370000220FFF7D1FB0E4800F05EF840F69F70A8
:101380000C498880472008800020C8804880084891
:1013900000F0AEF90121064800F03CF801221146A8
:1013A000034800F04EF90021014800F039F810BD63
:1013B00000040040E40A002010B501210C4800F0B0
:1013C0002FF998B101210A4800F027F800210848B8
:1013D00000F026F80021074800F022F806480068CF
:1013E00080F480700449086000F0A8FD10BD000082
:1013F00000040040000800400C0C014021B10288AC
:1014000042F08002028004E002884FF67F731A40A7
:1014100002807047CA4302827047CA430282704703
:1014200021B1028842F00102028004E002884FF6F6
:10143000FE731A400280704710B504466848844223
:1014400008D10121C014FFF797FB0021E014FFF73A
:1014500093FBC4E0B4F1804F08D101210846FFF7A7
:101460006BFB00210120FFF767FBB8E05D48844279
:1014700008D101210220FFF75FFB00210220FFF7C6
:101480005BFBACE05848844208D101210420FFF7FF
:1014900053FB00210420FFF74FFBA0E05348844298
:1014A00008D101210820FFF747FB00210820FFF7A2
:1014B00043FB94E04E48844208D101211020FFF7FD
:1014C0003BFB00211020FFF737FB88E049488442AE
:1014D00008D101212020FFF72FFB00212020FFF75A
:1014E0002BFB7CE04448844208D101214014FFF7E3
:1014F00043FB00216014FFF73FFB70E03F4884424C
:1015000009D10121C804FFF737FB00214FF4002067
:10151000FFF732FB63E03A48844209D10121080514
:10152000FFF72AFB00214FF48010FFF725FB56E060
:101530003448844209D101214805FFF71DFB0021F1
:101540004FF40010FFF718FB49E02F48844208D100
:1015500001214020FFF7F0FA00214020FFF7ECFACC
:101560003DE02A48844208D101218020FFF7E4FAB7
:1015700000218020FFF7E0FA31E02548844208D1BD
:1015800001218015FFF7D8FA0021A015FFF7D4FA42
:1015900025E02048844209D101210804FFF7ECFA34
:1015A00000214FF48030FFF7E7FA18E01A48844230
:1015B00009D101214804FFF7DFFA00214FF4003080
:1015C000FFF7DAFA0BE01548844208D101218804BC
:1015D000FFF7D2FA00214FF48020FFF7CDFA10BDBB
:1015E000002C01400004004000080040000C0040B6
:1015F000001000400014004000340140004C014045
:10160000005001400054014000180040001C004000
:1016100000200040004001400044014000480140DB
:1016200030B50246002000230024158A05EA010394
:10163000958905EA010413B10CB1012000E00020F6
:1016400030BD1AB183890B43838102E083898B43C8
:101650008381704770B5002200230024058C4EF66C
:10166000FF7635400584038C8488828B48F6FF75AD
:101670002A404FF6FF452A400D884FF6FF7606EACE
:1016800005252A434DF6FF752B400D8906EA0535E1
:101690002B434D8806EA05352B430B4DA84202D05B
:1016A0000A4DA84208D14BF6FF752C408D894FF6A4
:1016B000FF7606EA85152C4384808283CD88A0F8C6
:1016C0004050038470BD0000002C014000340140F4
:1016D0000A460021818B4FF2FF7319404FF6FF73CA
:1016E00003EA0223194381837047A0F84010704732
:1016F000002202881D4B98420ED01D4B98420BD001
:10170000B0F1804F08D01B4B984205D01A4B98423D
:1017100002D01A4B984204D14FF68F731A404B886F
:101720001A43174B984207D0164B984204D04FF6F5
:10173000FF431A40CB881A4302808B8883850B882D
:1017400003850A4B98420BD0094B984208D00E4BA8
:10175000984205D00D4B984202D00D4B984201D1D2
:101760000B7A03860123838270470000002C01401E
:10177000003401400004004000080040000C00401C
:1017800000100040001400400040014000440140AF
:101790000048014008B501210420FFF7BDF90121EF
:1017A0000C20FFF7D9F918208DF8030003208DF8DD
:1017B00002004FF40070ADF8000069460348FEF7E0
:1017C000BFFF40210248FFF748F808BD000C014068
:1017D000000801401FB54FF4FA741E480088401EEF
:1017E0001D498880472008800020C88048801B4809
:1017F000FFF77EFF6020ADF800000120ADF8020089
:10180000ADF806400020ADF808000120ADF8020058
:1018100044F62060ADF8060069461048FFF71AFF4D
:1018200008210E48FFF754FF01210C48FFF7E6FDA1
:10183000084800680122C2EB500081B20748FFF758
:1018400054FF00210548FFF7EBFD03490348FFF76C
:101850004FFF1FBD1C000020EE0A002000080040C2
:1018600010B500F0D7FCFEF7ADFEFFF793FFFFF7D2
:10187000B1FF10BD10B540F22551114800F0BFF97D
:10188000E0B101200F4981F866000D4800F072FABE
:10189000C1B20C4890F8642090F86400401C094BD9
:1018A00083F864001846815490F86400622805DDCE
:1018B0000020194681F8660081F8640010BD000020
:1018C000004C00407C0A002010B540F22551114820
:1018D00000F095F9E0B101200F4981F866000D484C
:1018E00000F048FAC1B20C4890F8642090F8640007
:1018F000401C094B83F864001846815490F864003A
:10190000622805DD0020194681F8660081F8640030
:1019100010BD000000440040AC09002010B540F2AA
:101920002551114800F06BF9E0B101200F4981F811
:1019300066000D4800F01EFAC1B20C4890F8642011
:1019400090F86400401C094B83F8640018468154E9
:1019500090F86400622805DD0020194681F86600D1
:1019600081F8640010BD000000480040140A002007
:1019700001F40072B2F5007F00D100BFCA430280BB
:10198000704721B1828942F40052828104E0828949
:101990004DF6FF731A4082817047000000B585B094
:1019A00001210420FFF7D8F801214804FFF7B4F81B
:1019B0000420ADF8100003208DF8120018208DF8D7
:1019C000130004A97F48FEF7BBFE0820ADF8100005
:1019D00004208DF8130004A97A48FEF7B1FE4FF4F5
:1019E000E13000900020ADF80400ADF80600ADF83D
:1019F0000800ADF80C000C20ADF80A0069467248EA
:101A000000F04CF9012240F225516F4800F021F915
:101A1000002240F227716C4800F01BF901216A484E
:101A2000FFF7AFFF01210820FFF796F80121880496
:101A3000FFF772F84FF48060ADF8100003208DF8C6
:101A4000120018208DF8130004A96048FEF778FEF4
:101A50004FF40060ADF8100004208DF8130004A9C5
:101A60005A48FEF76DFE4FF4165000900020ADF876
:101A70000400ADF80600ADF80800ADF80C000C202D
:101A8000ADF80A006946524800F008F9012240F218
:101A900025514F4800F0DDF8002240F227714C48F4
:101AA00000F0D7F801214A48FFF76BFF0121102011
:101AB000FFF752F80121C804FFF72EF84FF48060B9
:101AC000ADF8100003208DF8120018208DF81300D7
:101AD00004A94048FEF734FE4FF40060ADF8100052
:101AE00004208DF8130004A93A48FEF729FE4FF4AC
:101AF000E13000900020ADF80400ADF80600ADF82C
:101B00000800ADF80C000C20ADF80A006946324818
:101B100000F0C4F8012240F225512F4800F099F856
:101B2000002240F227712C4800F093F801212A4846
:101B3000FFF727FF01211020FFF70EF801212020D9
:101B4000FFF70AF801210805FEF7E6FF4FF4805081
:101B5000ADF8100003208DF8120018208DF8130046
:101B600004A91C48FEF7ECFD0420ADF810008DF828
:101B7000130004A91948FEF7E3FD4FF4E13000908B
:101B80000020ADF80400ADF80600ADF80800ADF88F
:101B90000C000C20ADF80A006946114800F07EF8F0
:101BA000002240F225510E4800F053F8002240F286
:101BB00027710B4800F04DF801210948FFF7E1FEBD
:101BC00005B000BD0008014000440040000C014089
:101BD0000048004000100140004C0040001401404B
:101BE0000050004002460020B1F5007F00D100BF48
:101BF00013880B400BB1012000E00020704770B546
:101C00000246002400230025002040F66A16B14257
:101C100000D100BFC1F3421501F01F03012606FAEF
:101C200003F3012D02D19689334006E0022D02D143
:101C3000168A334001E0968A33400C12012606FAD8
:101C400004F41688344013B10CB1012000E00020E8
:101C500070BDF0B50346002400260025002040F6A4
:101C60006A17B94200D100BF1846C1F3421401F00F
:101C70001F06012707FA06F5012C01D10C3004E0FC
:101C8000022C01D1103000E014301AB107682F4344
:101C9000076002E00768AF430760F0BD2DE9F04739
:101CA00086B005460E460024A24600BFA146002786
:101CB000B08900B100BF2F462C8A4CF6FF7004405B
:101CC000F08804432C82AC894EF6F3100440B088AF
:101CD00031890843718908430443AC81AC8A4FF6CB
:101CE000FF400440B0890443AC8201A8FEF764FFC2
:101CF0001F48874202D1DDF810A001E0DDF80CA0FA
:101D0000A88900F4004040B10AEBCA0000EB0A10B9
:101D100031684900B0FBF1F807E00AEBCA0000EBBC
:101D20000A1031688900B0FBF1F86420B8FBF0F0CC
:101D300004012009642101FB1089A88900F40040F6
:101D400040B1322000EBC900B0FBF1F000F0070019
:101D5000044308E0322000EB09106421B0FBF1F0ED
:101D600000F00F0004432C8106B0BDE8F0870000AE
:101D70000038014001468888C0F308007047C1F36D
:101D800008028280704700BFFEE770B504460D462A
:101D900029462046FFF7F3FF00BF80212046FFF7CA
:101DA00021FF0028F9D070BD0FB4054B10B503A971
:101DB000044A029800F018F810BC5DF814FB00000B
:101DC00091240008A809002002E008C8121F08C1D9
:101DD000002AFAD170477047002001E001C1121FAC
:101DE000002AFBD1704700002DE9FF4F89B09B46C8
:101DF0000446002506E025280BD05A460B9990474B
:101E0000641C6D1C20780028F5D10DB02846BDE873
:101E1000F08F0027B8460122474900E0074314F835
:101E2000013F203B02FA03F00842F7D120782E2828
:101E300019D114F8010F47F004072A280ED06FF0CB
:101E40002F022078A0F1300109290CD808EB880175
:101E500002EB410100EB0108641CF2E70A98641CE4
:101E600050F8048B0A9020780028CED0642808D03F
:101E7000692806D075281ED05A460B9990476D1CCC
:101E800058E00A994FF00A0901C90A91002802DABC
:101E900040422D2102E0390504D52B218DF8201078
:101EA000012103E0F90704D02021F7E78A4608AEB4
:101EB0000DE00021FAE70A994FF00A0901C90A91D9
:101EC000F7E74946FEF75DF9303106F8011D0028B5
:101ED000F7D1ADEB060000F12009780701D44FF0EF
:101EE0000108C84502DDA8EB090000E0002080469B
:101EF000002706E008A85A46C05D0B9990476D1C64
:101F00007F1C5745F6DB04E030205A460B9990477A
:101F10006D1CB8F10001A8F10108F5DC05E016F828
:101F2000010B5A460B9990476D1CB9F10001A9F1BC
:101F30000109F4DC641C65E70928010000B585B0DF
:101F40009748006897490968884205DC944800680A
:101F500094490968884274D100219348FFF760FAD8
:101F600000219248FFF75CFA91480078012811D1CE
:101F7000904800688A49096808448E4908608E487C
:101F8000006890B1864800688B490968401A894901
:101F900008600AE086480078022806D18548006873
:101FA0007F490968401A834908608248006883496C
:101FB000884205DB7F480068401A7E4908600AE0D5
:101FC0007C480068002806DA7A48006800F5F4309A
:101FD0004830784908607A48008877490968794A22
:101FE0001268744B1B68CDE90132CDE903106D48CE
:101FF000006800906A480368734802687348016883
:1020000073A0FFF7D1FE01207A49088000206849BB
:1020100008706D4908606D49086061490860694948
:10202000086075490860644908607448006820F0D9
:1020300004007249086088157149086005B000BD48
:10204000FFE760480068401C5E4908605549086821
:10205000534909685D4A12681144491E00EBD07269
:10206000012303EB620291420EDA58480068654989
:10207000096808445549086063480068096890FB8E
:10208000F1F05149086029E0454800684549096870
:10209000884223DA4D4800685A490968401A4B497A
:1020A0000860084600680A2809DA3E4800683C389B
:1020B0003B490968884202DD0A20444908604348D8
:1020C0000068012802DA0120404908604E48006893
:1020D0003E49096890FBF1F03B49086034480078BC
:1020E000012804D140214948FEF7B5FB07E03048FC
:1020F0000078022803D140214448FEF7AEFB324865
:10210000006843490968884213DC414800682E4949
:1021100008603D480068096890FBF1F020490968B3
:1021200008441F49086042F20F7020492C31088092
:102130000FE01B48006825490968084418490860F1
:1021400021480088214909884843401E17492C31FD
:102150000880294800681C490968884213D01A4839
:1021600000682549086018480088401E0E492C3137
:10217000088015490968481E00EBD0714910491EB6
:10218000094A403211800848008840F001000649A1
:10219000088001210548FFF743F900BF4EE7000022
:1021A000300000204C0000200008004000040040E7
:1021B000540000205C0000205800002048E8010086
:1021C00022000020500000203800002034000020B1
:1021D0004E25640954256409732564094125640961
:1021E0005025640974696D256409432564094E25E9
:1021F000640D0A00200000203C000020080401407B
:10220000140C014044000020400000200008014060
:102210004800002008B501213020FEF79DFC012177
:102220001020FEF799FC4FF47070ADF800001020FC
:102230008DF8030003208DF8020069466A48FEF716
:102240007FFA01210820FEF787FC4FF47040ADF8BB
:10225000000010208DF8030003208DF8020069466D
:102260006248FEF76DFA01212020FEF775FC4FF45D
:102270008070ADF8000010208DF8030003208DF869
:10228000020069465A48FEF75BFA01212020FEF75A
:1022900063FC4FF26000ADF8000010208DF80300E1
:1022A00003208DF8020069465148FEF749FA0121E2
:1022B0000820FEF751FC4FF48070ADF800001020AC
:1022C0008DF8030003208DF8020069464748FEF7A9
:1022D00037FA01210420FEF73FFC4020ADF8000052
:1022E00010208DF8030003208DF802006946414854
:1022F000FEF726FA4FF400713B48FEF7ACFA4FF4B4
:1023000080713948FEF7A7FA80213748FEF7A3FA13
:1023100040213548FEF79FFA4FF480513348FEF7CD
:102320009AFA4FF400513148FEF795FA4FF4804184
:102330002E48FEF790FA4FF400412C48FEF78BFA36
:102340004FF480712A48FEF786FA4FF480512848EE
:10235000FEF781FA4FF400512548FEF77CFA4FF45E
:1023600080412348FEF777FA4FF400412048FEF7FA
:1023700072FA01212020FEF7EFFB0320ADF80000E8
:1023800048208DF8030069461948FEF7D9F9012164
:102390000420FEF7E1FB4FF4C450ADF800004820E4
:1023A0008DF8030069461348FEF7CAF90121102091
:1023B000FEF7D2FB3020ADF8000048208DF8030076
:1023C00069460948FEF7BCF901210820FEF7C4FB65
:1023D0000720ADF8000048208DF803006946034847
:1023E000FEF7AEF908BD000000100140000C0140EE
:1023F000001401400008014000B585B06846FEF7B2
:10240000DBFB6FF00400FEF787FE0020FEF7CBFE3B
:1024100007490198B0FBF1F0064908704FF4FA51F2
:102420000198B0FBF1F00449088005B000BD000040
:1024300000127A00160000201800002070B5044633
:102440001148008800FB04F5B5F1807F01D36FF0DF
:102450007F452846FEF7BAFE0020FEF771FE0120F8
:10246000FEF76EFE00BF1020FEF785FE07490870DC
:10247000084600780128F6D1C01EFEF761FE002054
:10248000FEF75EFE70BD0000180000201A0000205C
:1024900070B504460D4640210748FFF769FAE1B2DE
:1024A0000548FFF76CFC00BF40210348FFF79AFB8B
:1024B0000028F9D0204670BD004C0040012080F378
:1024C000108800BFFEF786FEFFF7A4FEFFF794FF1B
:1024D0006420FFF7B3FFFEF71BFAFFF75FFAFEF782
:1024E000A9FEFEF743FFFEF71FFCFEF7BAF9002036
:1024F00080F3108800BFFFF7B3F905E0FEF7CAF9D3
:10250000FDF762FFFEF7FDF9F8E72DE9F041074618
:102510000C46154600262E4600BF14F8011B38460F
:10252000FFF733FC701E86B2002EF6D1BDE8F081B5
:102530000003030601040602050003051F1C1F1EFD
:102540001F1E1F1F1E1F1E1F6825000800000020E1
:10255000AC090000D401000878260008AC0900206E
:102560005C050000D81D0008412D01020304047021
:102570000A06070809020406080AE3A00FE9104149
:102580001B102740310217321207FA0802C1230933
:102590003D23127A231BB72324F4142D3101143662
:1025A0006E012B3FAB5601E623093D23127A231B14
:1025B000B72324F4142D310114366E0104E93FAB26
:1025C0000123093D23127A231BB72324F4142D3150
:1025D0000114366E0104E93FAB0123093D23127A51
:1025E000231BB72324F4142D310114366E0104E9A2
:1025F0003FAB0123093D23127A231BB72324F41494
:102600002D310114366E0104E93FAB0123093D234E
:10261000127A231BB72324F4142D310114366E01D2
:1026200004E93FAB0123093D23127A231BB723247E
:10263000F4142D310114366E0104FF3FAB0101EAA1
:10264000430CAA2A020A6A550A7A0D147A0D14520A
:102650001432016B1657140B101752320946960AA2
:1026600023FF01492D0A29552D1A14AA560DAAAA8D
:08267000550D6B0D550A8100A8
:0400000508000131BD
:00000001FF
